:020000040800F2
:1000000000280020B5150008C1130008C713000818
:10001000CD130008D3130008D91300080000000016
:10002000000000000000000000000000DF130008D6
:10003000EB13000800000000F71300080314000889
:10004000FD150008FD150008FD150008FD15000848
:10005000FD150008FD150008FD150008FD15000838
:10006000FD150008FD150008FD150008FD15000828
:10007000FD150008FD150008FD150008FD15000818
:10008000FD150008FD150008FD150008FD15000808
:10009000FD150008FD150008FD150008FD150008F8
:1000A000FD150008FD150008FD150008FD150008E8
:1000B00011140008FD15000800000000FD150008DF
:1000C000FD1500080000000000000000FD150008FC
:1000D00000000000FD150008FD15000800000000EC
:1000E000FD150008FD150008FD15000800000000C2
:1000F0000000000000000000000000000000000000
:0C01000000000000000000005FF808F1A3
:10010C0010B5054C237833B9044B13B10448AFF345
:10011C0000800123237010BD70000020000000003F
:10012C002C2C000808B5034B1BB103490348AFF353
:10013C00008008BD00000000740000202C2C00087A
:10014C0080B483B000AF7860064A7B6852F82330E5
:10015C00012B01D1012300E0002318460C37BD46CA
:10016C0080BC70478C00002080B500AF2021024875
:10017C0001F059FD00BF80BD0008014080B582B080
:10018C0000AF00237B6012E0454A7B6852F82320C5
:10019C0044497B6841F82320434A7B6852F823206A
:1001AC003F497B6841F823207B6801337B607B6887
:1001BC00022BE9DD40213D4801F006FD03461A46BD
:1001CC00394B1A608021394801F0FEFC03461A466F
:1001DC00354B5A604FF48071344801F0F5FC0346FE
:1001EC001A46314B9A6000233B6050E02C4A3B6826
:1001FC0052F823202C493B6851F823309A4243D1C2
:10020C00284A3B6852F8232025493B6851F8233093
:10021C009A4239D1234A3B6852F8232024493B683F
:10022C0051F823309A4217D01E4A3B6852F82320CB
:10023C001F493B6841F823201D4A3B6852F8233084
:10024C00002B21D11B4B4FF4FA721A601A4A3B68EF
:10025C00012142F8231017E0164B1B68013B154A8D
:10026C001360144B1B68002B0ED1124B4FF4FA7217
:10027C001A600F4A3B6852F82330002B04D10E4A07
:10028C003B68012142F823103B6801333B603B681B
:10029C00022BABDD00BF00BF0837BD4680BD00BFE1
:1002AC000C00002018000020000000200008014075
:1002BC0024000020300000208C00002080B582B08B
:1002CC0000AF884B1B68082B00F2EE8101A252F89C
:1002DC0023F000BF05030008B5060008B5060008AA
:1002EC00B5060008B50600085703000823040008EB
:1002FC0021050008EB050008FFF736FF794B0522B6
:10030C001A604FF49671012000F0BAFF0121002011
:10031C0000F0B6FF01F086F8734B1B68734A13604C
:10032C00734B1B68734A1360734B1B68734A1360DF
:10033C006D4B1B68724A13606D4B1B68714A1360DE
:10034C006D4B1B68704A1360B7E101F08FF86F4B6F
:10035C001B68002B1BD0654B1B680021184600F056
:10036C0099FD664B1B680121184600F093FD5F4B0D
:10037C001B68013B5D4A1360604B1B68013B5F4A85
:10038C00136001F0B3F86421002000F079FF5F4B9B
:10039C005B68002B0ED0534B06221A6001F042F81A
:1003AC00544B1B68642202FB03F33B603968012049
:1003BC0000F066FF0120FFF7C3FE0346002B16D0AA
:1003CC00484B09221A604FF47A71012000F058FF53
:1003DC0001F028F8454B0A221A60484B0A221A6091
:1003EC004B4B00225A600121002000F049FF0020F5
:1003FC00FFF7A6FE0346002B00F05881394B022272
:10040C001A6001F00FF80121002000F039FF404B79
:10041C0000221A604AE101F039F83C4B1B68002BB2
:10042C001BD0324B1B680021184600F033FD314BBA
:10043C001B680121184600F02DFD2C4B1B68013B5D
:10044C002A4A13602B4B1B68013B2A4A136001F0AC
:10045C004DF86421002000F013FF2C4B5B68002B3F
:10046C000ED0204B07221A6000F0DCFF234B1B68D8
:10047C00642202FB03F37B607968012000F000FF2B
:10048C000120FFF75DFE0346002B16D0154B0A2208
:10049C001A604FF47A71012000F0F2FE00F0C2FFF6
:1004AC00124B0A221A60134B0A221A60184B0022B4
:1004BC005A600121002000F0E3FE0020FFF740FE0F
:1004CC000346002B00F0F480064B02221A6000F069
:1004DC00A9FF0121002000F0D3FE0D4B00221A6071
:1004EC00E6E000BF980000204C0000203400002003
:1004FC005000002038000020540000203C00002058
:10050C004000002044000020480000209C000020F7
:10051C008C00002000F0CAFF6A4B1B68002B1BD01C
:10052C00694B1B680021184600F0B4FC674B1B6834
:10053C000121184600F0AEFC644B1B68013B634A7A
:10054C001360614B1B68013B5F4A136000F0CEFFE8
:10055C006421002000F094FE5A4B5B68002B0ED0F7
:10056C005B4B08221A6000F05DFF5A4B1B6864223B
:10057C0002FB03F33B603968012000F081FE01208F
:10058C00FFF7DEFD0346002B16D0514B0B221A60F1
:10059C004E4B0A221A604C4B0A221A6000F042FFA2
:1005AC004FF47A71012000F06BFE4B4B00225A6025
:1005BC000121002000F064FE0020FFF7C1FD03467E
:1005CC00002B77D0424B02221A6000F02BFF012146
:1005DC00002000F055FE404B00221A606AE000F04B
:1005EC0075FF384B1B68002B1BD03A4B1B68002146
:1005FC00184600F04FFC354B1B680121184600F0E3
:10060C0049FC324B1B68013B304A1360314B1B6871
:10061C00013B304A136000F069FF6421002000F0B8
:10062C002FFE284B5B68002B0ED0294B05221A603D
:10063C0000F0F8FE244B1B68642202FB03F37B6082
:10064C007968012000F01CFE0120FFF779FD0346BC
:10065C00002B16D01E4B0C221A601C4B0A221A605F
:10066C001C4B0A221A604FF47A71012000F008FE2C
:10067C0000F0D8FE184B00225A600121002000F037
:10068C00FFFD0020FFF75CFD0346002B14D0104B40
:10069C0002221A6000F0C6FE0121002000F0F0FDDD
:1006AC000D4B00221A6007E000BF06E000BF04E01B
:1006BC0000BF02E000BF00E000BF00BF0837BD462E
:1006CC0080BD00BF9C0000203C00002034000020B6
:1006DC0098000020380000208C00002080B500AF6E
:1006EC00B44B1B68093B032B00F25C8101A252F84E
:1006FC0023F000BF11070008B907000861080008C3
:10070C000709000800F0B2FEAB4B5B68002B02D06F
:10071C00A84B00221A600120FFF712FD0346002BA4
:10072C0012D0A44B0A221A60A44B0A221A60A44BC2
:10073C000A221A6000F076FE4FF47A71012000F064
:10074C009FFDA04B00225A600020FFF7F9FC0346E6
:10075C00002B0BD0974B02221A6000F063FE012194
:10076C00002000F08DFD974B00221A60924B1B6805
:10077C00002B00F01981914B1B680021184600F0EA
:10078C0089FB914B1B680121184600F083FB8B4BB6
:10079C001B68013B894A13608B4B1B68013B8A4ADF
:1007AC0013606421002000F06BFDFDE000F06EFE94
:1007BC00814B5B68002B02D07E4B00221A607E4B73
:1007CC001B68002B19D07D4B1B680021184600F0CC
:1007DC0061FB7B4B1B680121184600F05BFB774BE0
:1007EC001B68013B754A1360754B1B68013B744ACF
:1007FC0013606421002000F043FD0120FFF7A0FCF2
:10080C000346002B12D06B4B0B221A604FF47A71FB
:10081C00012000F035FD00F005FE684B0A221A603D
:10082C00694B0A221A60674B00225A600020FFF7BE
:10083C0087FC0346002B00F0B9805E4B02221A6045
:10084C0000F0F0FD0121002000F01AFD5D4B0022AC
:10085C001A60ABE000F02AFE574B1B68002B19D036
:10086C00594B1B680021184600F014FB534B1B68B6
:10087C000121184600F00EFB504B1B68013B4F4A00
:10088C001360514B1B68013B4F4A136064210020DD
:10089C0000F0F6FC484B5B68002B02D0454B002265
:1008AC001A600120FFF74CFC0346002B12D0414B81
:1008BC000C221A60414B0A221A60414B0A221A6020
:1008CC004FF47A71012000F0DBFC00F0ABFD3D4BE6
:1008DC0000225A600020FFF733FC0346002B67D040
:1008EC00344B02221A6000F09DFD0121002000F023
:1008FC00C7FC344B00221A605AE000F0E7FD2E4B87
:10090C005B68002B02D02B4B00221A602A4B1B6811
:10091C00002B1BD02A4B1B680021184600F0BAFA9A
:10092C00264B1B680121184600F0B4FA234B1B68B8
:10093C00013B224A1360224B1B68013B204A136087
:10094C0000F0D4FD6421002000F09AFC0120FFF798
:10095C00F7FB0346002B12D0164B09221A604FF4FA
:10096C007A71012000F08CFC00F05CFD134B0A2224
:10097C001A60154B0A221A60124B00225A60002092
:10098C00FFF7DEFB0346002B20D00A4B02221A6035
:10099C0000F048FD0121002000F072FC094B002200
:1009AC001A6013E000BF12E000BF10E000BF0EE0C1
:1009BC0000BF0CE0980000209C00002034000020B8
:1009CC00380000208C0000203C00002000BF00BF3D
:1009DC0080BD00BF80B500AF944B1B68013B032B5F
:1009EC0000F2338201A252F823F000BF090A00087A
:1009FC00110A0008870B00080D0D00088B4B002214
:100A0C001A6029E2894B1B680121184600F042FA52
:100A1C00874B1B680021184600F03CFA854B1B687D
:100A2C00002B08D0814B1B68184600F089FD322141
:100A3C00002000F025FC0020FFF782FB0346002B72
:100A4C0007D07A4B03221A6000F0ECFC7A4B0022A0
:100A5C001A600120FFF774FB0346002B14D0764B71
:100A6C0000225A60724B1B680133714A1360704B41
:100A7C001B68642B02D16E4B01221A606C4B1B68F5
:100A8C000021184600F006FA0220FFF759FB034636
:100A9C00002B00F0DC81684B00229A60644B1B68D1
:100AAC00022B4BDD624B1B68612B47DC634B1A68D6
:100ABC005F4B1B689A4205DA5D4B1A685F4B1B68EB
:100ACC00D31A01E05E4B1B685E4A13605E4B1A68DA
:100ADC005C4B1B681344632B17DC554B1A68594B42
:100AEC001B68D31A584A1360514B1B68574A136042
:100AFC00564B1B68564A1360524B1B68504A136086
:100B0C00514B1B684D4A136024E0524B1B684F4AF3
:100B1C001360514B1B684B4A1360504B1B684A4A7D
:100B2C0013604A4B1B684A4A1360464B1B68444A85
:100B3C001360454B1B68414A13600BE0454B1B6827
:100B4C00424A1360444B1B683E4A1360434B1B687C
:100B5C003D4A136000F066FC344B05221A603A4B98
:100B6C001B68642202FB03F31946012000F088FB8A
:100B7C000121002000F084FB69E12C4B1B68012152
:100B8C00184600F087F9364B1B680021184600F018
:100B9C0081F9284B1B68002B08D0244B1B68184686
:100BAC0000F0CEFC3221002000F06AFB0020FFF7A1
:100BBC00C7FA0346002B07D01C4B04221A6000F026
:100BCC0031FC1D4B00221A600120FFF7B9FA0346D5
:100BDC00002B14D0184B00225A60214B1B68013398
:100BEC001F4A13601E4B1B68642B02D11C4B012245
:100BFC001A601B4B1B680021184600F04BF90220B1
:100C0C00FFF79EFA0346002B00F023810A4B0022CB
:100C1C009A60134B1A680E4B1B689A4222DA0C4BE3
:100C2C001A680F4B1B68D31A1EE000BF98000020F7
:100C3C00580000209C0000208C0000204800002060
:100C4C0044000020380000203C000020340000202C
:100C5C00400000204C0000205000002054000020D8
:100C6C005C0000207D4B1B687D4A13607C4B1A682E
:100C7C007C4B1B681344632B17DC794B1A68794B3C
:100C8C001B681344784A1360764B1B68774A1360D1
:100C9C00754B1B68764A1360744B1B68754A13605E
:100CAC006F4B1B686D4A136017E0734B1B686E4AE1
:100CBC001360724B1B686D4A1360714B1B68684A5A
:100CCC001360694B1B686A4A1360684B1B68694A5E
:100CDC001360634B1B68614A136000F0A3FB694B04
:100CEC0005221A605E4B1B68642202FB03F3194653
:100CFC00012000F0C5FA0121002000F0C1FAA8E0A3
:100D0C00604B1B680121184600F0C4F85E4B1B6851
:100D1C000021184600F0BEF85C4B1B68002B08D075
:100D2C00584B1B68184600F00BFC3221002000F0D9
:100D3C00A7FA0020FFF704FA0346002B07D0514B0B
:100D4C0001221A6000F06EFB514B00221A60012048
:100D5C00FFF7F6F90346002B14D04D4B00225A60D6
:100D6C00494B1B680133484A1360474B1B68642B83
:100D7C0002D1454B01221A60434B1B6800211846D7
:100D8C0000F088F80220FFF7DBF90346002B62D055
:100D9C003F4B00229A603C4B1A68354B1B689A42B9
:100DAC0005DA334B1A68384B1B68D31A01E0314B08
:100DBC001B682E4A1360344B1A682C4B1B68134467
:100DCC00632B17DC304B1A68284B1B681344264ADC
:100DDC0013602D4B1B68224A1360234B1B68244A5B
:100DEC001360224B1B68234A13601D4B1B681B4A64
:100DFC00136017E0204B1B681B4A13601F4B1B68CA
:100E0C001A4A13601E4B1B68154A1360164B1B685D
:100E1C00174A1360154B1B68164A1360104B1B685E
:100E2C000E4A136000F0FEFA164B05221A600C4BAA
:100E3C001B68642202FB03F31946012000F020FA20
:100E4C000121002000F01CFA05E000BF04E000BF07
:100E5C0002E000BF00E000BF00BF80BD48000020E2
:100E6C003C0000205C0000203400002038000020F2
:100E7C0040000020440000204C00002050000020C6
:100E8C005400002098000020600000209C000020EE
:100E9C008C00002080B58EB000AF786039607B6824
:100EAC006A4A82FB03129210DB17D31A7B637A68AF
:100EBC00664B83FB02139910D317C91A0B469B0080
:100ECC000B445B00D31A3B6307F11C0300221A602E
:100EDC005A609A60DA6007F10C0300221A605A60BB
:100EEC009A60DA600323FB6228E07B6B002B03F033
:100EFC000103B8BF5B421A46FB6A9B0007F138013D
:100F0C000B4443F81C2C7B6BDA0F13445B107B6394
:100F1C003B6B002B03F00103B8BF5B421A46FB6A24
:100F2C009B0007F138010B4443F82C2C3B6BDA0F78
:100F3C0013445B103B63FB6A013BFB62FB6A002BB7
:100F4C00D3DA3B68002B3BD1BB6ADBB21A460221D9
:100F5C003F4800F050FE7B6ADBB21A4604213C4845
:100F6C0000F049FE3B6ADBB21A460821384800F013
:100F7C0042FEFB69DBB21A461021354800F03BFEFD
:100F8C00BB69DBB21A464FF48061314800F033FE86
:100F9C007B69DBB21A464FF400612D4800F02BFE42
:100FAC003B69DBB21A464FF48051294800F023FE0E
:100FBC00FB68DBB21A464FF40051254800F01BFECB
:100FCC003B68012B3DD1BB6ADBB21A46402121485C
:100FDC0000F011FE7B6ADBB21A4680211D4800F03E
:100FEC000AFE3B6ADBB21A464FF48071194800F0D6
:100FFC0002FEFB69DBB21A464FF40071154800F093
:10100C00FAFDBB69DBB21A464FF48061114800F05F
:10101C00F2FD7B69DBB21A464FF400610D4800F01B
:10102C00EAFD3B69DBB21A464FF48051094800F0E7
:10103C00E2FDFB68DBB21A464FF40051054800F0A4
:10104C00DAFD00BF3837BD4680BD00BF67666666F7
:10105C0000080140000C014080B500AF00F0CAFA56
:10106C0000F010F800F096F800F048F8044801F091
:10107C001FFAFFF733FBFFF721F9FFF7ABFCF8E79B
:10108C00EC00002080B590B000AF07F118032822C7
:10109C000021184601F0BCFD3B1D00221A605A606D
:1010AC009A60DA601A610223BB610123BB621023D0
:1010BC00FB6200237B6307F11803184600F0CCFD9C
:1010CC000346002B01D000F0D5F80F237B600023E2
:1010DC00BB600023FB6000233B6100237B613B1D55
:1010EC000021184601F038F80346002B01D000F01F
:1010FC00C1F800BF4037BD4680BD000080B586B04A
:10110C0000AF07F1080300221A605A609A60DA6097
:10111C003B4600221A605A601D4B4FF080421A6009
:10112C001B4B41F63F725A60194B00229A60184BC8
:10113C000922DA60164B00221A61154B00229A61C3
:10114C00134801F065F90346002B01D000F092F82A
:10115C004FF48053BB6007F1080319460C4801F0AB
:10116C00E3FA0346002B01D000F084F800233B6027
:10117C0000237B603B461946054801F0BBFC034647
:10118C00002B01D000F076F800BF1837BD4680BDAB
:10119C00EC00002080B586B000AF07F108030022F8
:1011AC001A605A609A60DA60294B9B69284A43F0AE
:1011BC0004039361264B9B6903F004037B607B68FB
:1011CC00234B9B69224A43F008039361204B9B6994
:1011DC0003F008033B603B68002243F63E411D4888
:1011EC0000F009FD002243F6FF711B4800F003FDDF
:1011FC0043F63E43BB600123FB6000233B610223AB
:10120C007B6107F108031946124800F063FB4FF4A9
:10121C00E073BB600023FB6000233B6107F1080314
:10122C0019460C4800F056FB43F6FF73BB600123D4
:10123C00FB6000233B6102237B6107F10803194625
:10124C00054800F047FB00BF1837BD4680BD00BF06
:10125C000010024000080140000C014080B582B033
:10126C0000AF7860FEF78AFF00F022F800BF083765
:10127C00BD4680BD80B400AF72B600BFFEE7000073
:10128C0080B483B000AF78603960074A7B68002176
:10129C0042F8231005497B683A6841F8232000BFC7
:1012AC000C37BD4680BC70479C000020C400002059
:1012BC0080B483B000AF00237B6017E0104A7B68DA
:1012CC0052F82330002B09DD0D4A7B6852F823308D
:1012DC005A1E0B497B6841F8232004E0094A7B68BD
:1012EC00012142F823107B6801337B607B68092B5A
:1012FC00E4DD00BF00BF0C37BD4680BC704700BFAB
:10130C00C40000209C00002080B485B000AF154BB9
:10131C009B69144A43F001039361124B9B6903F0E0
:10132C000103BB60BB680F4BDB690E4A43F0805373
:10133C00D3610C4BDB6903F080537B607B680A4BF9
:10134C005B68FB60FB6823F0E063FB60FB6843F0C9
:10135C008063FB60044AFB68536000BF1437BD46D2
:10136C0080BC7047001002400000014080B584B082
:10137C0000AF78607B681B68B3F1804F13D10C4BC6
:10138C00DB690B4A43F00103D361094BDB6903F0C2
:10139C000103FB60FB68002200211C2000F063FAB3
:1013AC001C2000F07CFA00BF1037BD4680BD00BF8A
:1013BC000010024080B400AFFEE780B400AFFEE73F
:1013CC0080B400AFFEE780B400AFFEE780B400AF9E
:1013DC00FEE780B400AF00BFBD4680BC704780B450
:1013EC0000AF00BFBD4680BC704780B400AF00BFEB
:1013FC00BD4680BC704780B500AF00F041F900BF1E
:10140C0080BD000080B500AF024801F09DF800BF20
:10141C0080BD00BFEC00002080B400AF00BFBD4613
:10142C0080BC704780B500AF002201210E4800F04F
:10143C00E2FB002202210C4800F0DDFB0022082117
:10144C00094800F0D8FB00220421074800F0D3FB28
:10145C0000222021044800F0CEFB0022102102487B
:10146C0000F0C9FB00BF80BD000C014080B500AF8F
:10147C0001220121044800F0BEFB01222021024878
:10148C0000F0B9FB00BF80BD000C014080B500AF7F
:10149C0001220121044800F0AEFB01220821024880
:1014AC0000F0A9FB00BF80BD000C014080B500AF6F
:1014BC0001220221044800F09EFB01221021024867
:1014CC0000F099FB00BF80BD000C014080B500AF5F
:1014DC0001220221044800F08EFB01220421024863
:1014EC0000F089FB00BF80BD000C014080B400AF50
:1014FC000D4B1B68002B03DC0C4B1B680A4A13605A
:10150C000B4B1B68002B03DC0A4B1B68084A13604F
:10151C00094B1B68002B03DC084B1B68064A136045
:10152C0000BFBD4680BC7047340000204000002046
:10153C003C0000204800002038000020440000201F
:10154C0080B582B000AF78607B68042B1BD07B68C1
:10155C00042B21DC7B68022B03D07B68032B09D086
:10156C001AE001210F4800F05EFB02210D4800F04B
:10157C005AFB12E004210B4800F055FB08210948E6
:10158C0000F051FB09E01021064800F04CFB202133
:10159C00044800F048FB00E000BF00BF0837BD4620
:1015AC0080BD00BF000C0140FFF736FF0B480C4913
:1015BC000C4A002302E0D458C4500433C4188C42A3
:1015CC00F9D3094A094C002301E013600432A2420A
:1015DC00FBD301F0F9FAFFF73FFD70470000002044
:1015EC0070000020702C00087000002038010020D2
:1015FC00FEE7000080B500AF084B1B68074A43F0BC
:10160C0010031360032000F023F90F2000F008F8FA
:10161C00FFF77AFE0023184680BD00BF0020024071
:10162C0080B582B000AF7860124B1A68124B1B78F1
:10163C0019464FF47A73B3FBF1F3B2FBF3F318468C
:10164C0000F03BF90346002B01D001230EE07B6830
:10165C000F2B0AD8002279684FF0FF3000F003F905
:10166C00064A7B681360002300E001231846083704
:10167C00BD4680BD640000206C0000206800002086
:10168C0080B400AF054B1B781A46054B1B681344FE
:10169C00034A136000BFBD4680BC70476C0000203D
:1016AC003401002080B400AF024B1B681846BD46C5
:1016BC0080BC70473401002080B485B000AF7860E6
:1016CC007B6803F00703FB600C4BDB68BB60BA68FC
:1016DC004FF6FF031340BB60FB681A02BB68134351
:1016EC0043F0BF6343F40033BB60044ABB68D36070
:1016FC0000BF1437BD4680BC704700BF00ED00E052
:10170C0080B400AF044BDB681B0A03F007031846D8
:10171C00BD4680BC704700BF00ED00E080B483B0D4
:10172C0000AF0346FB7197F90730002B0BDBFB79FD
:10173C0003F01F02064997F907305B09012000FAF4
:10174C0002F241F8232000BF0C37BD4680BC704725
:10175C0000E100E080B483B000AF03463960FB7158
:10176C0097F90730002B0ADB3B68DAB20C4997F982
:10177C0007301201D2B20B4483F800230AE03B6815
:10178C00DAB20849FB7903F00F03043B1201D2B221
:10179C000B441A7600BF0C37BD4680BC704700BFA7
:1017AC0000E100E000ED00E080B489B000AFF8602B
:1017BC00B9607A60FB6803F00703FB61FB69C3F156
:1017CC000703042B28BF0423BB61FB690433062BDE
:1017DC0002D9FB69033B00E000237B614FF0FF3231
:1017EC00BB6902FA03F3DA43BB681A407B699A407F
:1017FC004FF0FF317B6901FA03F3D9437B680B404F
:10180C00134318462437BD4680BC704780B582B060
:10181C0000AF78607B68013BB3F1807F01D301237B
:10182C000FE00A4A7B68013B53600F214FF0FF30F9
:10183C00FFF790FF054B00229A60044B07221A60B9
:10184C00002318460837BD4680BD00BF10E000E0FD
:10185C0080B582B000AF78607868FFF72DFF00BFCD
:10186C000837BD4680BD80B586B000AF0346B96071
:10187C007A60FB7300237B61FFF742FF78617A6823
:10188C00B9687869FFF790FF024697F90F30114657
:10189C001846FFF75FFF00BF1837BD4680BD80B507
:1018AC0082B000AF0346FB7197F907301846FFF77B
:1018BC0035FF00BF0837BD4680BD80B582B000AF94
:1018CC0078607868FFF7A2FF034618460837BD46D4
:1018DC0080BD000080B48BB000AF7860396000230D
:1018EC007B6200233B6248E101227B6A02FA03F32C
:1018FC00FB613B681B68FA691340BB61BA69FB6901
:10190C009A4240F037813B685B68A34A93425ED0B1
:10191C00A14A934275D8A14A934258D09F4A934208
:10192C006FD89F4A934252D09D4A934269D89D4AA0
:10193C0093424CD09B4A934263D89B4A934246D0E5
:10194C00994A93425DD8122B2AD8122B59D801A24E
:10195C0052F823F0DB190008B5190008C719000864
:10196C00091A00080F1A00080F1A00080F1A0008AD
:10197C000F1A00080F1A00080F1A00080F1A000897
:10198C000F1A00080F1A00080F1A00080F1A000887
:10199C000F1A00080F1A0008BD190008D119000809
:1019AC00824A934213D02CE03B68DB683B6229E00F
:1019BC003B68DB6804333B6224E03B68DB6808333C
:1019CC003B621FE03B68DB680C333B621AE03B6810
:1019DC009B68002B02D104233B6213E03B689B689D
:1019EC00012B05D108233B627B68FA691A6109E077
:1019FC0008233B627B68FA695A6103E000233B626F
:101A0C0000E000BFBB69FF2B01D87B6801E07B685D
:101A1C0004337B61BB69FF2B02D87B6A9B0002E01D
:101A2C007B6A083B9B003B617B691A680F213B6911
:101A3C0001FA03F3DB431A40396A3B6901FA03F3F9
:101A4C001A437B691A603B685B6803F08053002B78
:101A5C0000F09080564B9B69554A43F0010393610B
:101A6C00534B9B6903F00103BB60BB68514A7B6A13
:101A7C009B08023352F82330FB607B6A03F00303AC
:101A8C009B000F2202FA03F3DB43FA681340FB605E
:101A9C007B68494A93420DD07B68484A934207D0F1
:101AAC007B68474A934201D1022304E0032302E0FE
:101ABC00012300E000237A6A02F0030292009340B3
:101ACC00FA681343FB603B497B6A9B080233FA6854
:101ADC0041F823203B685B6803F48013002B06D08D
:101AEC00384B9A683749BB6913438B6006E0354B1A
:101AFC009A68BB69DB43334913408B603B685B6876
:101B0C0003F40013002B06D02E4BDA682D49BB6969
:101B1C001343CB6006E02B4BDA68BB69DB432949E6
:101B2C001340CB603B685B6803F40033002B06D09A
:101B3C00244B5A682349BB6913434B6006E0214B85
:101B4C005A68BB69DB431F4913404B603B685B68B9
:101B5C0003F48033002B06D01A4B1A681949BB6961
:101B6C0013430B6006E0174B1A68BB69DB4315493E
:101B7C0013400B607B6A01337B623B681A687B6A9B
:101B8C0022FA03F3002B7FF4AFAE00BF00BF2C375B
:101B9C00BD4680BC704700BF000032100000311001
:101BAC000000221000002110000012100000111083
:101BBC00001002400000014000080140000C0140F0
:101BCC00001001400004014080B485B000AF786083
:101BDC000B467B807B689A687B881340002B02D075
:101BEC000123FB7301E00023FB73FB7B18461437C6
:101BFC00BD4680BC704780B483B000AF78600B46A4
:101C0C007B8013467B707B78002B03D07A887B68B3
:101C1C001A6103E07B881A047B681A6100BF0C37D9
:101C2C00BD4680BC704780B485B000AF78600B4671
:101C3C007B807B68DB68FB607A88FB6813401A0446
:101C4C00FB68D9437B880B401A437B681A6100BF41
:101C5C001437BD4680BC704780B586B000AF786045
:101C6C007B68002B01D101236CE27B681B6803F0BD
:101C7C000103002B00F08780924B5B6803F00C0390
:101C8C00042B0CD08F4B5B6803F00C03082B12D188
:101C9C008C4B5B6803F48033B3F5803F0BD1894BDD
:101CAC001B6803F40033002B6CD07B685B68002B43
:101CBC0068D1012346E27B685B68B3F5803F06D1AF
:101CCC00804B1B687F4A43F4803313602EE07B68A3
:101CDC005B68002B0CD17B4B1B687A4A23F4803356
:101CEC001360784B1B68774A23F4802313601DE044
:101CFC007B685B68B3F5A02F0CD1724B1B68714AE3
:101D0C0043F4802313606F4B1B686E4A43F480339B
:101D1C0013600BE06B4B1B686A4A23F4803313602F
:101D2C00684B1B68674A23F4802313607B685B68ED
:101D3C00002B13D0FFF7B6FC386108E0FFF7B2FCBC
:101D4C0002463B69D31A642B01D90323FAE15D4B9C
:101D5C001B6803F40033002BF0D014E0FFF7A2FC57
:101D6C00386108E0FFF79EFC02463B69D31A642BEE
:101D7C0001D90323E6E1534B1B6803F40033002B1A
:101D8C00F0D100E000BF7B681B6803F00203002B5E
:101D9C0063D04C4B5B6803F00C03002B0BD0494B0E
:101DAC005B6803F00C03082B1CD1464B5B6803F4F7
:101DBC008033002B16D1434B1B6803F00203002B1E
:101DCC0005D07B681B69012B01D00123BAE13D4B87
:101DDC001B6823F0F8027B685B69DB00394913430D
:101DEC000B603AE07B681B69002B20D0364B01223C
:101DFC001A60FFF757FC386108E0FFF753FC024606
:101E0C003B69D31A022B01D903239BE12D4B1B6891
:101E1C0003F00203002BF0D02A4B1B6823F0F802CE
:101E2C007B685B69DB00274913430B6015E0264B8D
:101E3C0000221A60FFF736FC386108E0FFF732FC2D
:101E4C0002463B69D31A022B01D903237AE11D4BBD
:101E5C001B6803F00203002BF0D17B681B6803F0B6
:101E6C000803002B3AD07B689B69002B19D0174BC9
:101E7C0001221A60FFF716FC386108E0FFF712FC2C
:101E8C0002463B69D31A022B01D903235AE10D4BAD
:101E9C005B6A03F00203002BF0D0012000F09AFAE9
:101EAC001CE00A4B00221A60FFF7FCFB38610FE0C4
:101EBC00FFF7F8FB02463B69D31A022B08D9032320
:101ECC0040E100BF00100240000042428004424248
:101EDC009E4B5B6A03F00203002BE9D17B681B6805
:101EEC0003F00403002B00F0A6800023FB75974B36
:101EFC00DB6903F08053002B0DD1944BDB69934AC3
:101F0C0043F08053D361914BDB6903F08053BB608A
:101F1C00BB680123FB758E4B1B6803F48073002B8D
:101F2C0018D18B4B1B688A4A43F480731360FFF7FC
:101F3C00B9FB386108E0FFF7B5FB02463B69D31AE1
:101F4C00642B01D90323FDE0814B1B6803F48073E0
:101F5C00002BF0D07B68DB68012B06D17B4B1B6A16
:101F6C007A4A43F0010313622DE07B68DB68002B97
:101F7C000CD1764B1B6A754A23F001031362734B29
:101F8C001B6A724A23F0040313621CE07B68DB6853
:101F9C00052B0CD16D4B1B6A6C4A43F00403136286
:101FAC006A4B1B6A694A43F0010313620BE0674BEF
:101FBC001B6A664A23F001031362644B1B6A634A73
:101FCC0023F0040313627B68DB68002B15D0FFF74A
:101FDC0069FB38610AE0FFF765FB02463B69D31ADF
:101FEC0041F28832934201D90323ABE0574B1B6A71
:101FFC0003F00203002BEED014E0FFF753FB386123
:10200C000AE0FFF74FFB02463B69D31A41F28832D4
:10201C00934201D9032395E04C4B1B6A03F0020356
:10202C00002BEED1FB7D012B05D1484BDB69474AD8
:10203C0023F08053D3617B68DB69002B00F0818037
:10204C00424B5B6803F00C03082B61D07B68DB69A7
:10205C00022B46D13F4B00221A60FFF723FB38615D
:10206C0008E0FFF71FFB02463B69D31A022B01D98C
:10207C00032367E0354B1B6803F00073002BF0D192
:10208C007B681B6AB3F5803F08D1304B5B6823F447
:10209C0000327B689B682D4913434B602B4B5B686C
:1020AC0023F474127B68196A7B685B6A0B432749BB
:1020BC0013434B60274B01221A60FFF7F3FA386188
:1020CC0008E0FFF7EFFA02463B69D31A022B01D95D
:1020DC00032337E01D4B1B6803F00073002BF0D07B
:1020EC002FE01C4B00221A60FFF7DCFA386108E085
:1020FC00FFF7D8FA02463B69D31A022B01D9032306
:10210C0020E0124B1B6803F00073002BF0D118E099
:10211C007B68DB69012B01D1012313E00B4B5B685E
:10212C00FB60FB6803F480327B681B6A9A4206D121
:10213C00FB6803F470127B685B6A9A4201D001233E
:10214C0000E0002318461837BD4680BD0010024041
:10215C00007000406000424280B584B000AF7860EF
:10216C0039607B68002B01D10123D0E06A4B1B68DE
:10217C0003F007033A689A4210D9674B1B6823F0A7
:10218C00070265493B6813430B60634B1B6803F004
:10219C0007033A689A4201D00123B8E07B681B68B8
:1021AC0003F00203002B20D07B681B6803F00403B0
:1021BC00002B05D0594B5B68584A43F4E0635360DD
:1021CC007B681B6803F00803002B05D0534B5B683E
:1021DC00524A43F460535360504B5B6823F0F00257
:1021EC007B689B684D4913434B607B681B6803F00D
:1021FC000103002B40D07B685B68012B07D1474B58
:10220C001B6803F40033002B15D101237FE07B689E
:10221C005B68022B07D1414B1B6803F00073002B4A
:10222C0009D1012373E03D4B1B6803F00203002B23
:10223C0001D101236BE0394B5B6823F003027B680F
:10224C005B68364913434B60FFF72CFAF8600AE0E1
:10225C00FFF728FA0246FB68D31A41F28832934200
:10226C0001D9032353E02D4B5B6803F00C027B6810
:10227C005B689B009A42EBD1274B1B6803F007036A
:10228C003A689A4210D2244B1B6823F00702224969
:10229C003B6813430B60204B1B6803F007033A6841
:1022AC009A4201D0012332E07B681B6803F00403DF
:1022BC00002B08D0194B5B6823F4E0627B68DB6869
:1022CC00164913434B607B681B6803F00803002B13
:1022DC0009D0124B5B6823F460527B681B69DB00EE
:1022EC000E4913434B6000F021F802460B4B5B6820
:1022FC001B0903F00F030A49CB5C22FA03F3094ACA
:10230C001360094B1B681846FFF78AF9002318461F
:10231C001037BD4680BD00BF0020024000100240B7
:10232C00442C0008640000206800002080B487B0B2
:10233C0000AF0023FB600023BB6000237B61002304
:10234C007B6000233B611E4B5B68FB60FB6803F00A
:10235C000C03042B02D0082B03D027E0194B3B6154
:10236C0027E0FB689B0C03F00F03174AD35C7B60E0
:10237C00FB6803F48033002B10D0114B5B685B0CB3
:10238C0003F00103114AD35CBB607B680D4A02FB6E
:10239C0003F2BB68B2FBF3F37B6104E07B680C4A8D
:1023AC0002FB03F37B617B693B6102E0054B3B6104
:1023BC0000BF3B6918461C37BD4680BC704700BF48
:1023CC000010024000127A00542C0008642C000803
:1023DC0000093D0080B485B000AF78600A4B1B68E3
:1023EC000A4AA2FB03235B0A7A6802FB03F3FB6035
:1023FC0000BFFB685A1EFA60002BF9D100BF00BF6A
:10240C001437BD4680BC704764000020D34D621069
:10241C0080B582B000AF78607B68002B01D10123BE
:10242C0041E07B6893F83D30DBB2002B06D17B6832
:10243C00002283F83C207868FEF798FF7B68022224
:10244C0083F83D207B681A687B6804331946104674
:10245C0000F056FA7B68012283F846207B68012243
:10246C0083F83E207B68012283F83F207B680122A1
:10247C0083F840207B68012283F841207B6801228D
:10248C0083F842207B68012283F843207B68012279
:10249C0083F844207B68012283F845207B68012265
:1024AC0083F83D20002318460837BD4680BD000048
:1024BC0080B485B000AF78607B6893F83D30DBB2B8
:1024CC00012B01D0012335E07B68022283F83D20EB
:1024DC007B681B68DA687B681B6842F00102DA6073
:1024EC007B681B68164A934209D07B681B68B3F162
:1024FC00804F04D07B681B68124A934211D17B68D1
:10250C001B689B6803F00703FB60FB68062B10D06D
:10251C007B681B681A687B681B6842F001021A60B2
:10252C0007E07B681B681A687B681B6842F0010235
:10253C001A60002318461437BD4680BC704700BF94
:10254C00002C01400004004080B584B000AF7860DE
:10255C007B681B68DB68FB607B681B681B69BB6066
:10256C00BB6803F00203002B20D0FB6803F00203CE
:10257C00002B1BD07B681B686FF002021A617B6812
:10258C0001221A777B681B689B6903F00303002BFD
:10259C0003D0786800F098F905E0786800F08BF9C2
:1025AC00786800F09AF97B6800221A77BB6803F010
:1025BC000403002B20D0FB6803F00403002B1BD07A
:1025CC007B681B686FF004021A617B6802221A7721
:1025DC007B681B689B6903F44073002B03D07868FD
:1025EC0000F072F905E0786800F065F9786800F0A1
:1025FC0074F97B6800221A77BB6803F00803002B80
:10260C0020D0FB6803F00803002B1BD07B681B68F1
:10261C006FF008021A617B6804221A777B681B68CA
:10262C00DB6903F00303002B03D0786800F04CF94E
:10263C0005E0786800F03FF9786800F04EF97B68A7
:10264C0000221A77BB6803F01003002B20D0FB6824
:10265C0003F01003002B1BD07B681B686FF010027B
:10266C001A617B6808221A777B681B68DB6903F4A4
:10267C004073002B03D0786800F026F905E07868E9
:10268C0000F019F9786800F028F97B6800221A77B5
:10269C00BB6803F00103002B0CD0FB6803F00103B3
:1026AC00002B07D07B681B686FF001021A617868F9
:1026BC00FEF7D4FDBB6803F08003002B0CD0FB6845
:1026CC0003F08003002B07D07B681B686FF080023F
:1026DC001A61786800F06FFABB6803F04003002BB6
:1026EC000CD0FB6803F04003002B07D07B681B6801
:1026FC006FF040021A61786800F0F8F8BB6803F0DC
:10270C002003002B0CD0FB6803F02003002B07D018
:10271C007B681B686FF020021A61786800F042FA3F
:10272C0000BF1037BD4680BD80B584B000AF786067
:10273C0039600023FB737B6893F83C30012B01D18B
:10274C000223B4E07B68012283F83C207B680222E0
:10275C0083F83D207B681B689B68BB60BB6823F0DB
:10276C007703BB60BB6823F47F43BB607B681B684B
:10277C00BA689A603B681B68B3F5005F3ED0B3F54E
:10278C00005F00F28780B3F5805F00F08680B3F5C0
:10279C00805F7FD8702B1AD0702B7BD8602B50D0D9
:1027AC00602B77D8502B3CD0502B73D8402B58D063
:1027BC00402B6FD8302B64D0302B6BD8202B60D0B3
:1027CC00202B67D8002B5CD0102B5AD062E07B6892
:1027DC0018683B6899683B685A683B68DB6800F08E
:1027EC006AF97B681B689B68BB60BB6843F0770326
:1027FC00BB607B681B68BA689A604FE07B6818689E
:10280C003B6899683B685A683B68DB6800F053F991
:10281C007B681B689A687B681B6842F480429A60EC
:10282C003CE07B6818683B6859683B68DB681A4673
:10283C0000F0CAF87B681B685021184600F021F99B
:10284C002CE07B6818683B6859683B68DB681A4663
:10285C0000F0E8F87B681B686021184600F011F95D
:10286C001CE07B6818683B6859683B68DB681A4653
:10287C0000F0AAF87B681B684021184600F001F9AB
:10288C000CE07B681A683B681B681946104600F020
:10289C00F8F803E00123FB7300E000BF7B68012222
:1028AC0083F83D207B68002283F83C20FB7B184694
:1028BC001037BD4680BD80B483B000AF786000BFD8
:1028CC000C37BD4680BC704780B483B000AF7860D5
:1028DC0000BF0C37BD4680BC704780B483B000AFDE
:1028EC00786000BF0C37BD4680BC704780B483B0A5
:1028FC0000AF786000BF0C37BD4680BC704700004D
:10290C0080B485B000AF786039607B681B68FB6071
:10291C007B682B4A934207D07B68B3F1804F03D07E
:10292C007B68284A934208D1FB6823F07003FB6054
:10293C003B685B68FA681343FB607B68204A9342F0
:10294C0007D07B68B3F1804F03D07B681D4A93425C
:10295C0008D1FB6823F44073FB603B68DB68FA68C2
:10296C001343FB60FB6823F080023B685B691343F5
:10297C00FB607B68FA681A603B689A687B68DA626D
:10298C003B681A687B689A627B680D4A934203D154
:10299C003B681A697B681A637B6801225A617B6801
:1029AC001B6903F00103002B05D07B681B6923F026
:1029BC0001027B681A6100BF1437BD4680BC7047AA
:1029CC00002C01400004004080B487B000AFF860D8
:1029DC00B9607A60FB681B6A7B61FB681B6A23F039
:1029EC000102FB681A62FB689B693B613B6923F03F
:1029FC00F0033B617B681B013A6913433B617B69C4
:102A0C0023F00A037B617A69BB6813437B61FB6823
:102A1C003A699A61FB687A691A6200BF1C37BD4635
:102A2C0080BC704780B487B000AFF860B9607A6042
:102A3C00FB681B6A7B61FB681B6A23F01002FB6856
:102A4C001A62FB689B693B613B6923F470433B61F1
:102A5C007B681B033A6913433B617B6923F0A0033A
:102A6C007B61BB681B017A6913437B61FB683A6924
:102A7C009A61FB687A691A6200BF1C37BD4680BC3C
:102A8C00704780B485B000AF786039607B689B6814
:102A9C00FB60FB6823F07003FB603A68FB68134330
:102AAC0043F00703FB607B68FA689A6000BF143739
:102ABC00BD4680BC704780B487B000AFF860B96089
:102ACC007A603B60FB689B687B617B6923F47F4386
:102ADC007B613B681A027B681A43BB6813437A69B3
:102AEC0013437B61FB687A699A6000BF1C37BD4653
:102AFC0080BC704780B485B000AF786039607B686B
:102B0C0093F83C30012B01D1022341E07B68012278
:102B1C0083F83C207B68022283F83D207B681B688D
:102B2C005B68FB607B681B689B68BB60FB6823F081
:102B3C007003FB603B681B68FA681343FB607B689F
:102B4C001B68FA685A607B681B68144A934209D068
:102B5C007B681B68B3F1804F04D07B681B68104AFC
:102B6C0093420CD1BB6823F08003BB603B685B686D
:102B7C00BA681343BB607B681B68BA689A607B6851
:102B8C00012283F83D207B68002283F83C2000233F
:102B9C0018461437BD4680BC704700BF002C01405E
:102BAC000004004080B483B000AF786000BF0C37E5
:102BBC00BD4680BC704780B483B000AF786000BF66
:102BCC000C37BD4680BC704770B500260C4D0D4CC3
:102BDC00641BA410A64209D100F022F800260A4D6D
:102BEC000A4C641BA410A64205D170BD55F8043BD9
:102BFC0098470136EEE755F8043B98470136F2E763
:102C0C00682C0008682C0008682C00086C2C000844
:102C1C0003460244934200D1704703F8011BF9E7C5
:102C2C00F8B500BFF8BC08BC9E467047F8B500BFAD
:082C3C00F8BC08BC9E4670477D
:102C44000000000000000000010203040607080958
:102C540002030405060708090A0B0C0D0E0F1010D9
:042C64000102000069
:042C6800310100082E
:042C6C000D0100084E
:102C70000100000000000000000000000100000052
:102C80000000000000000000010000000000000043
:102C90000000000001000000000000000000000033
:102CA000F401000005000000020000000300000025
:102CB0000500000002000000030000000500000005
:102CC00002000000030000000100000001000000FD
:102CD0000100000000127A00100000000100000056
:04000005080015B525
:00000001FF
